:020000022000DC
:1060000000000120B5620200DD620200DF620200D2
:10601000E1620200E3620200E562020000000000AB
:10602000000000000000000000000000E762020025
:10603000E962020000000000EB620200ED62020073
:1060400081910200EF6202002D970200EF620200D0
:10605000EF620200EF620200E5910200EF620200CF
:10606000EF620200EF620200EF620200EF620200E4
:10607000EF620200EF620200EF620200EF620200D4
:10608000EF620200A16F0200EF620200EF62020005
:1060900041700200EF62020029C60200EF620200B6
:1060A000EF620200EF620200EF620200EF620200A4
:1060B000EF620200EF62020000000000000000003A
:1060C000EF620200EF620200EF620200EF62020084
:1060D000EF620200EF620200EF62020000000000C7
:1060E00000000000000000000000000000000000B0
:1060F00000000000000000000000000000000000A0
:10610000000000000000000000000000000000008F
:10611000000000000000000000000000000000007F
:10612000000000000000000000000000000000006F
:10613000000000000000000000000000000000005F
:10614000000000000000000000000000000000004F
:10615000000000000000000000000000000000003F
:10616000000000000000000000000000000000002F
:10617000000000000000000000000000000000001F
:10618000000000000000000000000000000000000F
:1061900000000000000000000000000000000000FF
:1061A00000000000000000000000000000000000EF
:1061B00000000000000000000000000000000000DF
:1061C00000000000000000000000000000000000CF
:1061D00000000000000000000000000000000000BF
:1061E00000000000000000000000000000000000AF
:1061F000000000000000000000000000000000009F
:1062000010B5054C237833B9044B13B10448AFF3F0
:1062100000800123237010BDF02C0020000000003E
:106220004CDA020008B5034B1BB103490348AFF336
:10623000008008BD00000000F42C00204CDA0200B1
:10624000154B002B08BF134B9D46A3F5803A002148
:106250008B460F461348144A121A06F0E2FB0F4B06
:10626000002B00D098470E4B002B00D09847002001
:10627000002104000D000D48002802D00C48AFF3A7
:10628000008006F07FFB2000290004F087FC06F068
:1062900065FB00BF000008000000012000000000B6
:1062A00000000000F02C0020703B002000000000E7
:1062B000000000000649074A074B9B1A03DD043B18
:1062C000C858D050FBDC02F0FBFBFFF7B9FF000021
:1062D00070DB0200982A0020F02C0020FEE7FEE789
:1062E000FEE7FEE7FEE7FEE7FEE7FEE7FEE7FEE786
:1062F000704700BF00B583B0044B0093044A4023AD
:1063000000F036F803B05DF804FB00BF156302002F
:10631000102D002002B32DE9F843114B114E884691
:10632000144643F0010903270025224608EB050126
:10633000002004F04DFD03461D444FF47A40E41A5A
:1063400023B9337833B1C847013F06D001233370F6
:10635000002CEAD1BDE8F88370473770BDE8F883B8
:1063600090CD02000C2D0020704700BF04F0E4BD6A
:10637000F0B595B0002415460F4608461E4602F0BB
:1063800091FA384623460895082205A91A9D0996D0
:106390000D950A948DF82C400C9402F0D7FA9DF8D4
:1063A00014308DF81140DDE9061003F00302012AD4
:1063B000CDE9020127D0022A04D0384602F076FA4D
:1063C00015B0F0BDBDF81650C3F3C2038DF8103000
:1063D000AD090826082D2C4628BF0824334622463E
:1063E0000EA9384602F0B2FA2D1B214608AB02AACC
:1063F0000EA8264400F0A2FC002DEBD1384602F096
:1064000055FA15B0F0BDBDF81460059DC6F38316AE
:10641000C3F3C204B2000EA9384608238DF8104019
:10642000C5F3952502F092FA08AB324628460EA92C
:10643000009302AB00F0DCFB384602F037FA15B0EF
:10644000F0BD00BF10B5054CFFF790FF20460421BA
:1064500000F08CFB0123637210BD00BF982A00205E
:10646000F0B5314D85B005F5836001F0E9FA05F22C
:10647000144001F0E5FAD5E9012702EA0704E31C1C
:1064800005EB830319788E0701F004000ED0C8B124
:1064900001F00301012935D0022902F10200EED1F9
:1064A0005A8800EB921202EA0704E8E7561C00281B
:1064B000EED159881A8806EB911606EB921202EA81
:1064C0000704DCE705EB8404531CE16801913B40C1
:1064D00005EB830301F003010129DE6802F10204E8
:1064E0001AD0022916D1BDF806309B090333360CA9
:1064F00004EB93040D4801F0AFFA00B16C60304634
:1065000005B0F0BD1B880232C3F383131A4402EABC
:106510000704B4E70646EDE7BDF80430C3F3831380
:10652000360C1C44E6E700BF202E00203432002049
:1065300008B50E4B0E480022FF21C3F818249960BD
:10654000C3E90022C3F8142483F8202402F066F97A
:1065500058B9084A084BD21AD20806D00749034650
:1065600021F8233001339A42FAD108BD202E0020B1
:1065700028DB020028DB0200A8DA0200B02C002091
:1065800021B9134A02EBC0000068704730B41149CA
:106590000F4C091BC90816D00F4B5A88824218BFEE
:1065A000002205D111E0DD88854203F1040305D006
:1065B00001329142F7D1002030BC704704EBC20099
:1065C000006830BC70470846F6E72046F8E700BF91
:1065D000A8DA020028DB0200B02C0020094B0139A8
:1065E00003EBC00003290BD8DFE801F00208060422
:1065F0000220704740797047007970470420704747
:1066000000207047A8DA02002DE9F04383B002AB06
:10661000002203F8012DDFF8DC9007461846884673
:10662000D9F8084001F038F9D9E90132D9F8006009
:10663000134401339B1B012B58D809F21C4501213F
:10664000284601F0E5F9FFF70BFF0146284601F067
:10665000DFF9D9E90132D9F80010134401335B1A8C
:10666000012BECD90A400332052302319DF80700C3
:1066700049F82230C9F8001001F034F900211C4813
:1066800001F0A4F980F31000731C234009EB83038D
:1066900000043440033440EA1740D86019F824302D
:1066A00067F3C50309F8243039F824306FF38913F0
:1066B00029F8243059F8242068F39F221346012139
:1066C00061F301036FF3820349F8242009F82430B1
:1066D00099F820341BB906E000F00EF818B1D9E99A
:1066E00000329A42F8D103B0BDE8F0833146B9E7F1
:1066F0003C320020202E00202DE9F0478F4D002352
:1067000084B0C5F81834BFF34F8FD5E901462B6824
:106710000CE037B301F0030101294FD0022903D166
:106720005288023404EB9214A34215D904EA0600FD
:10673000C21C05EB8202117811F0030F01F004076F
:10674000E7D1002FE6D151881288013404EB91146F
:1067500004EB9214A342E9D800206B6004B0BDE8BA
:10676000F08705EB8000631CC2680192334005EBA3
:10677000830302F00302DB680293022A04F1020899
:1067800000F08380012A1FD0D5F8104434B123686B
:1067900020469B6898476468002CF8D1684B69498B
:1067A0001888000440F00200FFF72EFFD5E9003002
:1067B000C01A18BF012004B0BDE8F0871288023467
:1067C000C2F383121444AFE7BDF804205E48C2F35D
:1067D0008313062B28BF062363F389120233990023
:1067E000ADF8042002F01CF881460028CCD002F05D
:1067F00059F83B46082201A9484602F079F8BDF84D
:10680000043013F4707F00F097806FF0010AAAEB58
:10681000040A082406EA080103312346042205EB92
:106820008101484602F064F8BDF8043008F1010720
:106830000AEB0702C3F383139342B84604F104043E
:10684000E8D8D5F81834002B6BD1D5F8104454B1E2
:10685000637A20464946002B5FD023681B6898471F
:106860006468002CF4D1484602F020F804A8002304
:1068700000F80D3D01F010F8D5F8183403B96F6039
:106880009DF8030001F02EF890E7BDF806302E4881
:106890009C09502CA24628BF4FF0500A6AF38F1370
:1068A0000AF10801ADF8063001F0BAFF8146002870
:1068B0003FF46AAF01F0F6FF3B4626EA08070137CE
:1068C000082201A94846BF0002F012F8BA4519D9BA
:1068D0005FFA8AF34FB306EA0801DB1B033105EBCD
:1068E0008101DEB23A460823484602F001F83246FA
:1068F00007F108031549484601F0FAFF033408EB95
:1069000094079EE706EA0801033105EB8101524630
:106910000823484601F0ECFFF0E76468002C97D1AB
:10692000A1E7484601F0C2FF40E752460823074965
:10693000484601F0DDFFE1E7474682E7202E0020D0
:10694000C42C0020A4CD020028DB02002C2E002045
:106950002DE9F04782B002AB002403F8014DDFF8C7
:10696000ECA00746184691468846DAF8084000F041
:1069700093FFDAE90132DAF80060134401339B1B1C
:10698000022B5ED80AF21C450121284601F040F88E
:10699000FFF766FD0146284601F03AF8DAE90132D0
:1069A000DAF80010134401335B1A022BECD90A40C9
:1069B0000332033145239DF807004AF82230CAF814
:1069C000001000F08FFFB31C23400AEB830300216B
:1069D0001D48C3F80C9000F0F9FF80F31000731C01
:1069E00023400AEB830300043440033440EA174099
:1069F000D8601AF8243067F3C5030AF824303AF84F
:106A00002430012161F389132AF824305AF8242014
:106A100068F39F22134661F301036FF382034AF880
:106A200024200AF824309AF820341BB906E0FFF736
:106A300063FE18B1DAE900329A42F8D102B0BDE83B
:106A4000F0873146B3E700BF3C320020202E002003
:106A50002DE9F04F83B002AD002405F8014D3B4C09
:106A60008046284693469A468946A56800F014FF5A
:106A7000D4E90132276813440133DB1B032B63D8AD
:106A800004F21C460121304600F0C2FFFFF7E8FC8B
:106A90000146304600F0BCFFD4E9013221681344BE
:106AA00001335B1A032BEDD90A400332852344F8E6
:106AB000223004319DF80700216000F013FFBA1C5A
:106AC000FB1C2A402B4004EB820204EB83030021D1
:106AD0001F48C2F80CB0C3F80CA000F077FF80F399
:106AE00010007B1C2B4004EB830300043D40033566
:106AF00040EA1840D86014F8253068F3C50304F85C
:106B0000253034F82530022262F3891324F8253029
:106B100054F8252069F39F221346012161F30103F4
:106B20006FF3820344F8252004F8253094F82034CC
:106B30001BB906E0FFF7E0FD18B1D4E900329A4234
:106B4000F8D103B0BDE8F08F3946ADE7202E002024
:106B50003C320020044BD3E900239A4201D0FFF7D6
:106B6000CBBD0020704700BF202E002030B4154D53
:106B7000D5F81044002154B1237A8B4213D0234618
:106B800002E01A7A8A420ED05B68002BF9D10172BA
:106B9000D5F810347BB15B684360D5F81034586089
:106BA00030BC0846704701310A29E4D14FF0FF316B
:106BB000084630BC7047C5F81004436030BC084636
:106BC000704700BF202E002038B5084BD3F8104482
:106BD000012583F820543CB12368657220465B6828
:106BE00098476468002CF7D138BD00BF202E0020E4
:106BF0002DE9F04784B01D460C9C002394F80C80CE
:106C00002373EB8881460E461746002B40D1297A24
:106C100005290ED06B7AA88873BB404B53F821A08E
:106C20000021FFF7ADFC524603463D49204600F0E7
:106C30008BFF062F09D8DFE807F0046A4249525D4E
:106C400033004946204600F07FFF2B7A052B05D004
:106C50006B7A5BB93349204600F076FF204600F09E
:106C600067FF84F80C8004B0BDE8F0872E4A2F49F6
:106C7000204600F069FFEDE7FFF7B0FC2C4B2B49F5
:106C800053F82020204600F05FFF297AA888C4E747
:106C9000254A00922749284A204600F055FFB6E7CA
:106CA000D6E90410D6E900230390D6E90207029141
:106CB000CDE900074946204600F046FFC5E74946B2
:106CC000D6E90023204600F03FFFBEE7B168D6E9D1
:106CD000002320460091494600F036FFB5E7D6E98B
:106CE0000201D6E90023019100904946204600F0B8
:106CF0002BFFAAE7D6E90371B068D6E90023029119
:106D0000CDE900074946204600F01EFF9DE73268A6
:106D10004946204600F018FF97E700BF44CE020026
:106D200034CE020040CE020028CE020030CE020057
:106D3000D0CD020010CE020008CE0200082900D9F2
:106D400070472DE9F04F1D46904600232A7B2B7398
:106D500085B0B8F80630039207460E46002B78D16E
:106D600098F80810052911D098F80930B8F80400EF
:106D7000002B60D13B4B53F821400021FFF700FC72
:106D8000224603463849284600F0DEFEDFF8F8B018
:106D9000DFF8F890002405E03A5D013400F0D4FEFD
:106DA000082C09D0A64249462846F5D85946013450
:106DB00000F0CAFE082CF5D12C49DFF8D490DFF89A
:106DC000D4B0284600F0C0FE002411E017F804A05B
:106DD00005F0FCFD50445946437813F0970F14BF5B
:106DE00052462E222846013400F0AEFE082C08D070
:106DF000A64249462846E9D8013400F0A5FE082CF1
:106E0000F6D198F80830052B02D098F8093063B90C
:106E10001749284600F098FE284600F089FE9DF8A4
:106E20000C302B7305B0BDE8F08F124A124928468A
:106E300000F08AFEECE7FFF7D1FB104B0E4953F848
:106E40002020284600F080FE98F80810B8F80400CA
:106E500090E7084A00920A490A4A284600F074FE60
:106E60007EE700BF44CE020034CE020000CE020016
:106E700040CE020028CE020030CE0200D0CD02006B
:106E800010CE020008CE0200FCCD0200F4CD0200BC
:106E90003CCE020004CE020000B585B00023039072
:106EA000194601AA44F20100CDE9013300F004F8CB
:106EB00005B05DF804FB00BF10B572B6FFF784FEA5
:106EC000FFF748FE0028FBD1104C11492088000430
:106ED00040F00100FFF798FB0E4B1B68DB0700D565
:106EE00000BE20880C49000440F00200FFF78CFB34
:106EF000BFF34F8F09490A4BCA6802F4E06213439B
:106F0000CB60BFF34F8F00BFFDE700BFC42C002054
:106F1000B0CE0200F0ED00E0BCCE020000ED00E0DB
:106F20000400FA0559B142B1531E1A4005D18260DE
:106F300001608380C26010467047092070470E20B0
:106F4000704700BF10B403468468C0689A88001B6D
:106F500082420AD3D8681C6802400020A154DA6833
:106F60000132DA605DF8044B704704205DF8044B91
:106F7000704700BF03468068DA6890420DD010B4B5
:106F800098689A881C6802400020A25C0A709A687F
:106F900001329A605DF8044B70470520704700BFCE
:106FA000F8B5204A204B0024C2F84041C2F84441C1
:106FB000C2F84841C2F84C41C2F80041C2F804414D
:106FC0001B6833B31949D2F804550A68AD1A1A6818
:106FD00025F07F45AA4227460DD8197CDE69AD1AF7
:106FE000144419B11F74D3E9052090471EB13346EC
:106FF0001A68AA42F1D90E490E4A0B7812789A42C1
:1070000008D00D490D4A41F823404FF48013C2F8CF
:107010000031F8BD531CDBB2022B08BF00230B70FC
:10702000EFE700BF00100140643300206033002010
:107030005D3300205C3300205433002000E100E089
:107040002DE9F04F8C4A8D4913780978DFF850828A
:10705000994285B0D8F800A000F07B810133DBB203
:10706000022B08BF002386481370864A076852F82F
:1070700023107B1823F07F430024036053462646E9
:107080002046A446ABB11A688A4200F26581DC68EA
:10709000C3F800C0891A1044DA6934B13D1825F0EC
:1070A0007F45C3E90154DE611E4613460124002BCF
:1070B000E9D1002C40F07C8101230093724B734F87
:1070C000DFF8E09143F00103019355464FF0000BC8
:1070D00046B3D6E901C13446F669694B6C481A6873
:1070E000ACEB020323F07F43834248D80B44236078
:1070F00000220121C4E90122E2612174002D5DD04A
:107100002A689A424DD2284603E00A689A424FD232
:107110000846C1699B1A0029F7D12360E161C46167
:10712000002ED6D178783978884264D00B4603EBAC
:1071300043034C1CBA7807EBC303E1B28A421A79C5
:10714000397004BF00213970022A9C6844D0032A98
:1071500038D0012AE8D1227C002AE5D1D3F80CC02E
:10716000C4F804C01969A1605869E06099F800008A
:107170009B69A3610028B0D062609446ADE7A2EBA2
:107180000C0222F07F428A4202D28B1A2360AFE7C0
:1071900000230122C4E90033A360E36122746DB1CE
:1071A0002A68C8F80040D31A2B60E56125468FE7AE
:1071B000D21A0A602360E161C461B1E7C8F80040F7
:1071C000254685E7002DAFD000232B74ED69002DF7
:1071D000FBD1C8F80050A5E74DB1AC422B4603D116
:1071E000E4E094422FD01346DA69002AF9D1002353
:1071F000237488429AD1BBF1000F01D1554553D079
:10720000002D56D1234E244A1F4C4FF480334FF4A7
:1072100000310127C2F880103C43C6F848334FF4D0
:107220003C60C6F808337760A047154BB7604FF451
:107230003C601D60A047194B1D70002389F8003089
:1072400005B0BDE8F08FA34200F09180E0692168AD
:10725000D861002800F086802A4603680B4403604A
:10726000AA424FF000033978787823741CBF154682
:107270004FF0010BBDE700BF5C3300205D33002001
:107280006033002054330020D0CE0200443200206E
:10729000FEFF7F000010014000E100E051330020BC
:1072A0006433002050330020009B002BC5D0002DFC
:1072B000A8D0434B434A1C68D2F80465424FD5F826
:1072C00000A03978331B23F07F43DD1CB9B93F4957
:1072D0003F4B4FF48030C2F844034FF00108C2F82E
:1072E00004034FF40030C1F8800143F0010308604B
:1072F000C2F800804FF43C60984787F80080AA45A8
:107300002CBF04EB0A0363192E4923F07F43C1F815
:107310004035D1F80425921B9B1B22F07F4223F0BD
:107320007F4303329A4288D9294BD1F80425C1F80A
:10733000402543F001034FF43C609847234B4FF442
:107340000032C3F80021002389F8003005B0BDE801
:10735000F08F00260096B1E674BB521A1A60012322
:107360000093ABE6002339787878237441E7194617
:10737000EA69C8F8002092B9CDE90231114BDFF873
:1073800040C001209860019B89F80000CCF80020E3
:107390004FF43C609847DDE90231D8F80020C86915
:1073A0000968D86100287FF458AF59E72946DFE71C
:1073B000C8F800309A467FE6C8F800309A46CCE715
:1073C00060330020001001405133002000E100E054
:1073D000D0CE02002DE9F8431F4D204E204FDFF89C
:1073E00098804FF480334FF400324FF001090024AD
:1073F000C6F8802047EA0907C5F848334FF43C60D7
:10740000C5F80833C5F80490B847C5F808904FF49C
:107410003C60C8F80040B847124A134B13491C603F
:107420001470134B134A0C700B2114701C8099704C
:107430004FF48012E023C6F8802186F814333260BE
:10744000C5F8084586F81133D5F80435C8F800307A
:107450002046BDE8F88300BF0010014000E100E0D5
:10746000D0CE020051330020643300205C33002072
:10747000443200205D33002060330020074B9B78AE
:107480004BB132B128B10368187C20B959745A61E4
:107490007047072070470820704700BF4432002023
:1074A0002DE9F047264CA37882B0002B3CD0002871
:1074B0003AD004293CD94369002B35D0814602A833
:1074C00099F811300026012B00F8016D0CBF884699
:1074D000B04617468A4600F0DFF96378A178227833
:1074E0009DF807005D1CEDB2A94208BF3546AA42CF
:1074F00022D003EB430304EBC3030121114AC3F879
:1075000008901971D2F804256570C3E9032AC3E90C
:10751000058700F0E7F90C4B4FF480123046C3F8B2
:10752000002102B0BDE8F087082002B0BDE8F08776
:10753000072002B0BDE8F08700F0D4F90420F0E79E
:10754000443200200010014000E100E0F0B51A4C88
:10755000A37883B043B338B343692BB3064602A87C
:10756000002500F8015D357400F096F96278A7787F
:1075700021789DF80700531CDBB29F4208BF2B46C1
:10758000994214D002EB420204EBC202022196603F
:107590001171637000F0A6F9084B4FF48012284671
:1075A000C3F8002103B0F0BD082003B0F0BD00F027
:1075B00099F90420F9E700BF4432002000E100E01F
:1075C00030B50478012C83B027D017D3022C13D107
:1075D000384B394D1A78C168AA5C01918DF800408A
:1075E000002A33D103F10C000122344902F0ECFAF5
:1075F000334B68461B68984703B030BD3149324869
:10760000FFF7B8FC002844D002A8032300F8083D87
:107610002B4B1B68984703B030BD43682B4D19783E
:107620002846FFF78FFC40B3254B01908DF80040B2
:107630001B6868469847A968EB68AA885B1A9A4253
:107640000AD2234B01221A7003B030BD181D01224B
:107650001A4902F033FDCBE71648174A0378D35C8A
:107660002BB9012215490C3002F0AEFAC4E7012211
:107670001249043002F022FDBEE7AA68EB689A4284
:10768000D9D002AB0E4A03F8080D1268184690478D
:10769000D1E70848084A0378D35C2BB9012209498D
:1076A0000C3002F01FFAA7E701220649043002F06D
:1076B000A7FCA1E7A42A0020EC3A00209033002088
:1076C0006833002094330020803300206C33002086
:1076D0007C3300202DE9F045324C89B0226000292E
:1076E00055D00C4680468A882F4809689A46FFF78D
:1076F00019FC10B109B0BDE8F085A289A1682B483A
:10770000FFF710FC0028F5D1294D98F810C0D8F8E3
:107710001470284E0FCD6C460FC495E80F0098F8F2
:1077200011501CF1000C18BF4FF0010C002D84E823
:107730000F00D8F80850D8F80040D8F80430069761
:1077400014BF0E220022D8F80C708DF8152069465F
:107750003046194A8DF81CA08DF814C0CDE9027589
:10776000CDE9003401F09EFC0028C3D1D8F80030E8
:10777000124A01331070BDD0114A3378D35C53B92B
:1077800006F10C0001220F4902F01EFAB2E70720B1
:1077900009B0BDE8F085301D01220A4902F08EFCD7
:1077A000A8E700BF683300206C330020803300203E
:1077B000D8CE0200A42A0020C17502007C3300202C
:1077C000EC3A00209033002070B5114C014611486E
:1077D0002678FFF7CFFB05460EB9284670BD0E4848
:1077E0000E4A0378D35C0022227053B90C30012278
:1077F0000B4902F0E9F90028EFD0FFF74DFB2846CE
:1078000070BD01220649043002F058FCF3E700BFC6
:107810007C3300206C330020A42A0020EC3A0020A6
:107820009033002070B501461548FFF78BFB0446E6
:1078300008B1204670BD134D134E2B78F35CABB9E5
:1078400005F10C0002F0B4F90028F2D10F490C4800
:10785000FFF790FB0028ECD12B780C49F35C012258
:1078600043B90B48BDE8704002F03CB9281D02F056
:1078700017FCE9E70748BDE8704002F0C1BB00BF54
:1078800080330020A42A0020EC3A0020943300200A
:10789000B02A0020A82A002070B4EFF3108472B63A
:1078A0000D4B9A68AAB90D490D4E01259D60D1F87E
:1078B000805035401D60C1F88060D1F884505D6013
:1078C0004FF0FF33C1F88430027004B962B670BC67
:1078D000704701230370F8E7E03A002000E100E080
:1078E000FC06FFBD094B9A687AB170B910B4EFF38A
:1078F000108272B606491C680C605C684C60986027
:1079000002B962B65DF8044B70477047E03A002058
:1079100000E100E030B482B050E8023F1FFAA3F566
:10792000C488A54202BFBFF32F8F00220DE0C48997
:1079300025448489A54228BF2D1BC3EA054540E89C
:107940000254002CE8D14FF001028DF8032001937E
:10795000019B9DF803200B602AB14B8800681844F6
:1079600002B030BC704702F0FF031846F8E700BFD2
:107970000A884B889A4201D00020704750E8022FB5
:10798000C2EA224240E80223002BF7D101207047CF
:1079900001F01F024B09012100EB8300914000F030
:1079A0001FB800BF01F01F0201234909934000EBFB
:1079B0008100D94300F020B84B0901F01F0150F8B5
:1079C0002300C84000F00100704700BF50E8002FBE
:1079D0000B4640E8003C9CF0000FF7D11046704782
:1079E00050E8003F43EA010240E8002C9CF0000F01
:1079F000F6D11046704700BF50E8003F03EA01028D
:107A000040E8002C9CF0000FF6D11046704700BFF4
:107A100050E8003F03EB010240E8002C9CF0000F0F
:107A2000F6D11046704700BF50E8003FA3EB0102BB
:107A300040E8002C9CF0000FF6D11046704700BFC4
:107A4000012350E8002F42EA030C40E800C191F006
:107A5000000FF6D160467047002350E800CF0CEAD3
:107A6000030240E8002191F0000FF6D16046704714
:107A7000B8B130B4D0E90112521A0468D2B2531E20
:107A80002160DBB242B101680A685C1E551C0D60C2
:107A90001370E3B2FF2BF6D103680020187130BCDD
:107AA00070470E20704700BFF0B583B002AB0025D1
:107AB00003F8015D04461846FFF7EEFED4E90031F5
:107AC0001A688A4210D9511E19602168A3680F688C
:107AD00012F8015C0A79A68AE068DB1BDBB29A42E5
:107AE00006FB050538BF0B719DF80700FFF7FAFE8E
:107AF000284603B0F0BD00BF30B583B002AB002212
:107B000003F8012D054618460C46FFF7C5FE2A6806
:107B10001368591C1160E968AA8A641AB4FBF2F46C
:107B20001C709DF80700FFF7DDFE03B030BD00BFFD
:107B3000826842B110B504464369016800699847FC
:107B40000023A36010BD70470EB400B582B0039946
:107B500029B102AA04AB42F8043D00F08BF802B050
:107B60005DF804EB03B070472DE9F84F8846904567
:107B7000174605461E46DDE90AB175D343464FF068
:107B80000109B3FBF7F39F4209F10109F9D9B145A6
:107B900038BFB14611F0010AAA6802D1BBF1000F4B
:107BA00043D1012402E0013E07FB04F4012EFAD880
:107BB000B8FBF4F18F42F7D92D4E05E0B4FBF7F492
:107BC000A4B1B8FBF4F1AA68705C531CAB602B68DD
:107BD0009854D5E901329A4204FB1188EED3284625
:107BE000FFF7A6FFB4FBF7F4002CEAD1BAF1000FBF
:107BF00015D0BBF1000F12D0CB4510D92024AB68B3
:107C00002A68591CA960D454D5E901329A420BF173
:107C1000FF3B06D2BBF1000F01D0CB45EFD1BDE851
:107C2000F88F2846FFF784FFF4E78B0717D420244A
:107C3000CB45B6D92B68511CA9609C54D5E90132BB
:107C40009A420BF1FF3B05D2BBF1000FA9D0CB4507
:107C5000F0D1A6E72846FFF76BFFAA68F4E7002EED
:107C60000CBF30242024E3E74FF001098FE700BF69
:107C7000F8CE0200002900F0F4812DE9F04F05460E
:107C800085B092460C460B78DFF8A0B501E023786A
:107C900093B1013483B1252B15D0AA682968501CF3
:107CA000A8608B54D5E901329A42F0D32846FFF7F9
:107CB0003FFF2378002BECD12B7B002B40F014816D
:107CC00005B0BDE8F08F2146002711F8012B2D2AC1
:107CD00000F0E180302A00F0E2802B2A00F0D28010
:107CE0002A2A00F0E080A2F13006F3B2092B03D972
:107CF000B8E1A3F130060146084606EB860310F80A
:107D0000012BA2F13004092C02EB4303F1D92E2AF6
:107D100000F0D5800023013101E011F8012B02F0C1
:107D2000FB0068280C46F8D0253A532AAFD801A1A9
:107D300051F822F0F57E02008F7C02008F7C020059
:107D40008F7C02008F7C02008F7C02008F7C0200FF
:107D50008F7C02008F7C02008F7C02008F7C0200EF
:107D60008F7C02008F7C02008F7C02008F7C0200DF
:107D70008F7C02008F7C02008F7C02008F7C0200CF
:107D80008F7C02008F7C02008F7C02008F7C0200BF
:107D90008F7C02008F7C02008F7C02008F7C0200AF
:107DA0008F7C02008F7C02008F7C02008F7C02009F
:107DB0008F7C02008F7C02008F7C02008F7C02008F
:107DC0008F7C02008F7C02008F7C02008F7C02007F
:107DD0008F7C02008F7C02008F7C02008F7C02006F
:107DE0008F7C02008F7C02008F7C02008F7C02005F
:107DF0008F7C02008F7C02008F7C02008F7C02004F
:107E00000F7F02008F7C02008F7C02008F7C0200BB
:107E10008F7C02008F7C02008F7C02008F7C02002E
:107E20008F7C02008F7C02008F7C0200297F020081
:107E30004B7F02008F7C02008F7C02008F7C02004F
:107E40008F7C02004B7F02008F7C02008F7C02003F
:107E50008F7C02008F7C02008F7C02008F7C0200EE
:107E60009B7F02008F7C02008F7C02000F8002004B
:107E70008F7C0200498002008F7C02008F7C020010
:107E80000F7F020047F004070C46214611F8012B32
:107E90002D2A7FF41FAF47F001070C46F5E747F0A6
:107EA00002070C46F1E7DAF800301A1DCAF8002084
:107EB00062781E682E2A04F102007FF42BAF4A7804
:107EC000A2F13003092B00F25081002303EB83035E
:107ED00002EB430310F8012FA2F130010929A3F1AD
:107EE0003003F3D9014616E7284605B0BDE8F04F48
:107EF000FFF71EBEAB682A68591CA9604FF0250128
:107F0000D154D5E901329A42FFF4C1AECEE6DAF897
:107F10000020111DCAF8001011682846CDE900673D
:107F20001022FFF721FEB2E6DAF80020131DCAF88E
:107F30000030AB6829681278581CA860CA54D5E98B
:107F400001329A42FFF4A3AEB0E6DAF80020111D28
:107F5000CAF80010D2F8008088EAE872A2EBE87252
:107F6000092A4FF0010107DDAF48A0FB0202D20849
:107F7000092A01F10101F7DC994238BF1946894607
:107F800007F00202002E71D12AB1002B00F04781C8
:107F9000FA0700F18D8000268AE0DAF80020131D30
:107FA000CAF80030AB6829681768581C3022A860EE
:107FB000CA54D5E90123934280F028812A68581CCD
:107FC0007821A860D154D5E90123934280F019812A
:107FD0000F2F03D93A4612090F2AFCD84FF08056CA
:107FE00003E036093FF453AEAB682968B7FBF6F2FD
:107FF000581CA8601BF80200C854D5E90131994209
:1080000006FB1277EDD32846FFF792FDE9E7DAF891
:1080100000301A1DCAF80020D3F80080FB077ED577
:108020004746A7EB080917F8013B002B5DD0AA686B
:108030002968501CA8608B54D5E901329A42F0D3CC
:108040002846FFF775FDECE7DAF80020111DCAF8A5
:10805000001011682846CDE900670A22FFF784FD69
:1080600015E6704708460026214650E6B8F1000F95
:1080700001DB780700D5013E02B1CBB1F90717D477
:10808000002E88D0B14513D220220393A9682B6813
:10809000481CA8605A54D5E90131994206F1FF36CF
:1080A0005DD2002E00F0BD80B145EFD1039B4E465E
:1080B000B8F1000FC0F292807A070AD5A9684A1C6D
:1080C000AA602A682B205054D5E90121914280F002
:1080D000928007F00302022A5FD0CDE90067414693
:1080E0000A222846FFF740FDD1E54E457FF6CFAD89
:1080F000202705E04E453FF4CAAD002E3FF4C7AD42
:10810000AB682A68591CA960D754D5E901329A4254
:1081100006F1FF36EED32846FFF70AFDEAE7B8F18D
:10812000000F24D0404604F08CFC0746BE4220D904
:10813000FEB14FF0200902E0BE421AD0CEB1AB68CA
:108140002A68591CA96002F80390D5E901329A42C5
:1081500006F1FF36F0D32846FFF7EAFCECE72846A5
:108160000292FFF7E5FC029A9BE70146D2E54746FB
:10817000DCE708F1FF3818F8013F002B3FF487AD2A
:10818000AA682968501CA8608B54D5E901329A422C
:10819000F1D32846FFF7CCFCEDE7002B9DD1002E54
:1081A0003BD0B14599D2029323464C469946AA68E2
:1081B0002B68501C4FF03001A8609954D5E901326A
:1081C0009A4206F1FF3605D22EB3B442EFD1029B9C
:1081D0004C4682E72846FFF7ABFCF5E7A9684A1C46
:1081E000AA602A682D205054D5E901219142C8F196
:1081F0000008FFF46EAF28460293FFF799FC029B3C
:1082000067E72846FFF794FCAB68E1E62846FFF7EE
:108210008FFCAB68D2E6029B4C4600265DE71E460B
:1082200046E7039BB7E600BFCDCCCCCCF8CE02002E
:1082300018B103680BB1DB69184770B50D4C0E4DD2
:108240000E4B2D1BA3FB05352D0910D005EB850525
:1082500004EB850501E0AC4209D0236820461434C4
:10826000002BF8D0DB6998470028F4D070BD0020BF
:1082700070BD00BFF02C0020F02C0020CDCCCCCC69
:1082800029DF704728DF7047034B187A0122B0FAC4
:1082900080F05A74400970479833002030B55E4C26
:1082A000237A87B0002B3AD05C4B1B6802222272E3
:1082B0001A79002A3ED0012A0CD1D3E903021044D6
:1082C000FFF7E0FF002849D0112803D101232372D2
:1082D00007B030BD19688A68C2B1002268460092B2
:1082E000C0E902220325026101959A6805921A7974
:1082F000002A4BD0012A07D102228DF80020DA682B
:10830000120302925B6904938B68984700234449E7
:10831000444823726360FFF72BFB07B030BD404930
:108320004048FFF7F7FA3D4A034610600028BDD1E8
:108330006060F2E7D3E90525521BB2F5805F28BFE4
:108340004FF48052D3E903109208012A38BF01226A
:1083500029442844FFF794FF0028B5D1227C002A45
:10836000DBD1227A002AD8D0022A0AD1E0601A7919
:10837000DAB1012A05D1D3E9042101328A421A6116
:108380001FD0637C73B104F039F9C6E701228DF880
:1083900000201A690292DA6803925B6904938B6881
:1083A0009847B3E7FFF77AFFB7E7D3E90512881AD2
:1083B000B0F5805F94BF121802F5805291429A6125
:1083C000DFD10022227219688868A8B1684600923D
:1083D000C0E90122C0E903229A6805921A7982B1A4
:1083E000012A07D102228DF80020DA6812030292D6
:1083F0005B6904938B68984709490A48FFF7B8FA04
:10840000BFE701228DF800201A690292DA68039210
:108410005B690493EEE700BF98330020B03300207F
:10842000AC330020B82A002000F0FD03012B00D05F
:10843000704730B5604CA0F10100B0FA80F0237AAB
:108440004009002287B020746274002B3AD05B4B45
:108450001B68022222721A79002A3ED0012A0CD10E
:10846000D3E903021044FFF70DFF002849D011287B
:1084700003D10123237207B030BD19688A68C2B1E5
:10848000002268460092C0E902220325026101959C
:108490009A6805921A79002A4BD0012A07D1022244
:1084A0008DF80020DA68120302925B6904938B68EE
:1084B000984700234249434823726360FFF758FA04
:1084C00007B030BD3E493F48FFF724FA3B4A034618
:1084D00010600028BDD16060F2E7D3E90525521B8A
:1084E000B2F5805F28BF4FF48052D3E903109208A1
:1084F000012A38BF012229442844FFF7C1FE002881
:10850000B5D1227C002ADBD1227A002AD8D0022AD7
:108510000AD1E0601A79CAB1012A05D1D3E9042150
:1085200001328A421A611DD0637C63B104F066F89F
:10853000C6E701228DF800201A690292DA680392D8
:108540005B690493B3E7FFF7A9FEB9E7D3E9051226
:10855000881AB0F5805F94BF121802F580529142DC
:108560009A61E1D10022227219688868A8B1684630
:108570000092C0E90122C0E903229A6805921A79A3
:1085800082B1012A07D102228DF80020DA68120395
:1085900002925B6904938B68984709490948FFF781
:1085A000E7F9C1E701228DF800201A690292DA6822
:1085B00003925B690493EEE798330020B033002008
:1085C000AC330020B82A0020831E012B00D970474D
:1085D00030B58E4C237A87B0002B31D0022B2BD1B3
:1085E00003286BD1E3680133082B79D9884B00222B
:1085F0001B68E26022720D2519688A68C2B10022E8
:1086000068460092C0E90222026101959A680592CB
:108610001A79002A00F0B980012A07D102228DF8C8
:108620000020DA68120302925B6904938B68984712
:1086300078497948FFF79CF9637C1BB103F0DEFFB2
:1086400007B030BD237A002B5BD0714B1B68022230
:1086500022721A79002A5FD0012A0BD1D3E90302D2
:108660001044FFF70FFE002869D0112802D1012322
:108670002372E5E719688A68C2B100226846009251
:10868000C0E902220325026101959A6805921A79D0
:10869000002A70D0012A07D102228DF80020DA6862
:1086A000120302925B6904938B689847002359492F
:1086B000594823726360FFF75BF9C1E7544B00220E
:1086C0001B68E2601A796AB1012AB5D1D3E90421A5
:1086D00001328A421A6111D0637C002BAED1B4E71B
:1086E000E360F9E7D3E90512881AB0F5805F94BF1B
:1086F000121802F5805291429A61EDD1002525723F
:108700007AE744494448FFF705F9414A03461060B7
:1087100000289CD1606093E7D3E90525521BB2F590
:10872000805FD3E9031028BF4FF480529208012ADA
:1087300038BF012229442844FFF7A2FD93E7227C99
:10874000002A7FF47DAF227A002A3FF479AF022A13
:108750000AD1E0601A7912B3012A05D1D3E90421C4
:1087600001328A421A6126D0637C002B7FF466AF07
:10877000FFF794FD64E701228DF800201A69029248
:10878000DA6803925B6904938EE701228DF800207A
:108790001A690292DA6803925B69049346E7D3E9A7
:1087A0000512881AB0F5805F94BF121802F5805246
:1087B00091429A61D8D10022227219688868A8B1C2
:1087C00068460092C0E90122C0E903229A68059236
:1087D0001A7982B1012A07D102228DF80020DA68C5
:1087E000120302925B6904938B68984709490A480F
:1087F000FFF7BEF8B8E701228DF800201A6902924F
:10880000DA6803925B690493EEE700BF98330020B7
:10881000B0330020AC330020B82A0020FFF728B97D
:108820002DE9F041858ACE1C043D2E440746B6FB57
:10883000F5F6FFF739F978B3F6B24FF48073013EDD
:108840000446C5800760838027D08046002509E064
:108850006379AE4203F101036371C8F80000076059
:1088600080461AD03846FFF71FF901350028EFD1AE
:108870006679721E14D02346013082421B68FBD1F8
:108880001F684EB1002523682146013538461C4635
:10889000FFF732F9AE42F6D100242046BDE8F08160
:1088A0002768EFE704300121FFF7B2B8F8B50121DE
:1088B00004460430FFF7B8F8C0B200B1F8BD6679DD
:1088C000721E12D02346013082421B68FBD11F6802
:1088D000002EF3D0002523682146013538461C467A
:1088E000FFF70AF9AE42F6D1F8BD2768F2E700BFFC
:1088F0002DE9F8430446181DE688B0FBF6F30F4651
:10890000904606FB130013B1013B2468FCD1351AD5
:10891000454528BF4546B8F1000F15D04FF0000976
:108920000430A8EB050820442A4607EB090104F0AF
:108930006DF84645A944246835464FF0000028BF2D
:108940004546B8F1000FEBD1BDE8F8832DE9F843B7
:10895000C688043304460F46B3FBF6F0904606FB88
:10896000103110B101382468FCD1751A454528BF73
:108970004546B8F1000F15D04FF0000904312144ED
:10898000A8EB05082A4607EB090004F03FF8464526
:10899000A944246835464FF0000128BF4546B8F188
:1089A000000FEBD1BDE8F88341DF7047064A074B63
:1089B00010B5002414701C60BFF35F8F0449054894
:1089C00000F032F8204610BDBC330020C033002038
:1089D00028CF0200B433002000B583B002A80023E2
:1089E00000F8013DFEF758FFF1EE103A23F09F0327
:1089F000E1EE103ABFF35F8F0A4B4022C3F88421A7
:108A00009DF80700FEF76EFF03F008FE28B920BFAF
:108A100040BF20BF03B05DF804FBFFF7C5FF03B004
:108A20005DF804FB00E100E001600B6843604A6808
:108A3000934204BF00234360704700BF436843B1C3
:108A4000026891680B4443605268934204BF00235C
:108A50004360704730B4184DA5F59472AB1ADB1023
:108A600003EBD3735B1002EBC30152F8333098422F
:108A700028BF0C4605D311E052F8333098420CD28F
:108A800021468B1ADB1003EBD3735B108A4202EB97
:108A9000C304F1D3094830BC70470D46984204D94D
:108AA00004F10802AA42D9D3F4E76068034B002816
:108AB00008BF1846EFE700BF7CD0020040CF02009D
:108AC00030B4904B1B78062B20D08F4B1B68062BA5
:108AD00000F085808D4AD2F8883043F47003C2F8E4
:108AE0008830BFF34F8FBFF36F8F4FF01023D3F851
:108AF0000022002AC0F28681D3F80432002BC0F293
:108B00008181834B834A1A6030BC7047824B1B685B
:108B10001D07DAD1814B1B6803F0F002302A00F008
:108B20009E8003F0E003402B00F099807B4B1B6894
:108B300003F0F003302B00F0B980784B1B6803F092
:108B4000F002302A56D003F0E003402B52D0734B92
:108B50001B6803F0F003302B00F0B6806F4B1B68EE
:108B600003F0F002302A66D003F0E003402B62D01D
:108B70006A4B1B6803F0F003302B00F0B580674BA5
:108B80001B6803F0F003302B79D0644B1B6803F0B3
:108B9000F003502B00F0E480604B1B6803F0F00200
:108BA000302A37D003F0E003402B33D05B4B1B68F7
:108BB00003F0F002302A03D003F0E003402B84D10D
:108BC0004FF08043D3F80024D20744BF6FF0010276
:108BD000C3F800244C4B1B68062B7FF47BAF504B33
:108BE0001B68062B7FF476AF4E4A136843F480630C
:108BF00013606FE74C4B434A1B6812784B49C3F331
:108C00004233062A0B6048D1434B1B6819077FF497
:108C10005CAF9CE7464A3B4B12681B78454902F023
:108C20004F02062B0A607FF450AF3B4B1B681907BD
:108C30007FF44BAFBAE74FF080430022C3F80C211A
:108C4000C3F81021C3F838252E4B1B78062B7FF470
:108C50003CAF314B1B681B077FF437AF88E7364BBF
:108C6000284A1B6812783549C3F30423062A0B608F
:108C7000EAD1294B1B681C077FF427AF56E7304C1D
:108C8000204A304912783048304B052525600125AF
:108C90000D6000243F2104601960062A7FF415AF9F
:108CA0001D4B1B681C077FF410AF6EE7154B284A5D
:108CB0001B7828491160062B7FF407AF164B1B6801
:108CC00018077FF402AF38E723490E4BCA681B78B8
:108CD00022F08072062BCA607FF4F7AE0E4B1B6841
:108CE0001A077FF4F2AE39E7064B1C4A1B780321C2
:108CF000062B11607FF4E9AE074B1B681D077FF45C
:108D0000E4AE3CE7E00F00F03001001000ED00E0C1
:108D1000CC2A00200090D003E40F00F0E80F00F010
:108D2000340100103C170040440200103C05004094
:108D300058020010E40E00402403001040350140AA
:108D40001056004088560040185600401456004007
:108D500074C007400DF0ADBAF0ED00E0A005004092
:108D60004FF08053404AD3F80414C2F82015D3F8CA
:108D70000814C2F82415D3F80C14C2F82815D3F837
:108D80001014C2F82C15D3F81414C2F83015D3F807
:108D90001814C2F83415D3F81C14C2F84015D3F8CF
:108DA0002014C2F84415D3F82414C2F84815D3F897
:108DB0002814C2F84C15D3F82C14C2F85015D3F867
:108DC0003014C2F85415D3F83414C2F86015D3F82F
:108DD0003814C2F86415D3F83C14C2F86815D3F8F7
:108DE00040142248C2F86C15D3F844140378C2F832
:108DF0007015062B7FF469AE1D4B1B6818077FF4B6
:108E000064AEC9E61B4B0122C3F80425D3F8002445
:108E1000002AFBD04FF0102315221649C3F8002278
:108E2000D1F80034002BFBD04FF010221521114B4C
:108E3000C2F80412D3F80024002AFBD000220D4906
:108E4000C3F80425D1F80034002BFBD0BFF34F8FBB
:108E500009490A4BCA6802F4E0621343CB60BFF3CE
:108E60004F8F00BFFDE700BF00C00040E00F00F0E3
:108E7000E40F00F000E0014000ED00E00400FA051E
:108E80004FF0A043D3F804056FEAD02000F00100B2
:108E9000704700BF4FF0A0434FF40062C3F80C25A9
:108EA000704700BF4FF0A0434FF40062C3F808259D
:108EB000704700BF4FF0A0434FF40062C3F808258D
:108EC000704700BF4FF0A0434FF40062C3F80C2579
:108ED000704700BF4FF0A042D2F80435D94301F4E7
:108EE000006103F40063C2F80815C2F80C3570473E
:108EF000014B185C704700BF68D40200C20708D558
:108F00004FF0A04303214FF40062C3F82C17C3F8BD
:108F1000082583070AD54FF0A0430C22C3F8342755
:108F2000C3F83827C3F83C27C3F84027704700BF71
:108F300010B570B101280BD10D4C2369A0703BB165
:108F4000D3E900230120226198472369002BF7D140
:108F500010BD074CA36801226270002BF8D0D3E942
:108F600000230020A2609847A368002BF7D1EFE709
:108F7000C433002070B910B5074CA3680122627099
:108F80003BB1D3E900230020A2609847A368002BDF
:108F9000F7D110BD704700BFC433002030B50128A1
:108FA00083B01CD015D3032811D100F0C9F802A852
:108FB00000231F4C00F8013DFEF76EFCE368013B07
:108FC000E360E56865B39DF80700FEF78BFC03B02E
:108FD00030BD184B0122C3F8802003B030BD02A879
:108FE0000023134C00F8013DFEF756FC237853B1E3
:108FF000E3689DF8070001330122E360A270FEF7E9
:1090000071FC03B030BD0C486360A3602361E36072
:1090100000F088F803F002FB30B101232370E7E78A
:1090200000F0A2F8A570CEE700F08AF8F5E700BFDF
:10903000C433002000E100E0318F020030B585B07C
:109040000478094A094B45688DF80040047AC068E5
:10905000039053F8213001958DF8084052F8211003
:109060006846984705B030BDD8330020DC33002077
:1090700030B585B0047845688DF80040D0E90240ED
:10908000064A074B039053F8213001958DF80840AC
:1090900052F821106846984705B030BDD8330020FB
:1090A000DC330020F0B51A4B06781A4D0C6991F8A4
:1090B0001DE045F826400746174803F806E040F84B
:1090C00026200C4694460FCC89B06D460FC594E817
:1090D0000F0085E80F000496BEF1000F0BD0BCF125
:1090E000000F0E4A694607F1040008BF002200F095
:1090F000A5FE09B0F0BDBCF1000F094A694607F1B1
:109100000C0008BF002200F01BFC09B0F0BD00BF3E
:10911000EC3A0020D8330020DC3300203D900200E0
:1091200071900200054A13792BB901211060537127
:109130001846117170478520704700BFE03300204A
:10914000084B1A68D20706D40122E02183F80013E5
:10915000C3F880211A604FF080430122C3F818251C
:10916000704700BF00E100E0044B01221A604FF09D
:109170008042D2F81834DB03FBD470470C00004067
:1091800010B5154B1A6882B07AB10021134A1960E4
:109190001B68507900934FF080410123009CC1F877
:1091A000083310B91168537188470D4B1A6882B1A2
:1091B00000221A601B6801934FF080420221074B86
:1091C0000198C2F808131B68012002B0BDE81040E6
:1091D000184702B010BD00BF00010040E03300207E
:1091E000040100402DE9F04186B00023A14A01931B
:1091F0001668012E00F054811E469F4B1A68012A02
:1092000000F05D819D4B1A68012A00F06A819C4B39
:109210001A68012A00F077819A4B1A68012A00F037
:109220008481994B1A68012A00F09181974B1A6842
:10923000012A00F09E81964B1A68012A0CD0954BAA
:109240001B68012B00F0A58116F0FF0F15D1002E31
:1092500030DB06B0BDE8F0818F4AD2F80423170650
:10926000EDD500221A601A6804926033049A1B68D4
:10927000012B46F0800600F08C81884F00240125E8
:10928000A30003F18043354203F5C0434FEA45058F
:109290000BD0D3F8100557F82420D3F81015C0F3DD
:1092A0000420C1F3014102B190470134082CE7D1F9
:1092B000002ECEDA00224FF0FF33CDE90223774CA7
:1092C000012602AF94F950305D1C2CD0DBB223F0A4
:1092D000C00006AA4FEAD00C02EB0C0E03F0070206
:1092E0001EF80C1C06FA02F211421CD0251899092E
:1092F00095F9303054F82330002B00F09881032981
:1093000000F098814FEA800C0CF1A04C1EF8145C20
:10931000DCF800E71540CEF3014E40F05C81BEF171
:10932000030F00F0DE81002594F95130581C2DD038
:10933000DBB223F0C00006AA4FEAD00802EB080E09
:1093400003F007011EF80C2C06FA01FC12EA0C0FC0
:109350001CD02218990992F9303054F82330002B90
:1093600000F05B81032900F05B81820002F1A042E2
:109370001EF8148CD2F800E718EA0C0FCEF3014E59
:1093800040F03681BEF1030F00F0A68194F952300F
:10939000591C2DD0DBB223F0C00006AA4FEAD0083A
:1093A00002EB080E03F007011EF80C2C06FA01FC74
:1093B00012EA0C0F1CD02218990992F9303054F897
:1093C0002330002B00F03C81032900F03C81820017
:1093D00002F1A0421EF8148CD2F800E718EA0C0F34
:1093E000CEF3014E40F0E380BEF1030F00F06E813A
:1093F00094F953305A1C2DD0DBB223F0C00006AADA
:109400004FEAD00802EB080E03F007011EF80C2CFF
:1094100006FA01FC12EA0C0F1CD02218990992F9E5
:10942000303054F82330002B00F0ED80032900F099
:10943000ED80820002F1A0421EF8148CD2F800E701
:1094400018EA0C0FCEF3014E40F0BC80BEF1030FC2
:1094500000F00081002D3FF4FCAE4FF0A043019AD4
:10946000D3F8103593423FF4F4AE029A019303927D
:1094700028E700BF0061004004610040086100402F
:109480000C61004010610040146100401861004010
:109490001C6100407C61004000600040E833002017
:1094A0009A49D1F8041311F0010170D013601368C8
:1094B0000493049B964B1A68012A7FF4A3AE934A47
:1094C000D2F8042397077FF59DAE00221A601B682F
:1094D0000493049B8F4B1A68012A46F002067FF41E
:1094E00096AE8A4AD2F8042355077FF590AE002243
:1094F0001A601B680493049B874B1A68012A46F084
:1095000004067FF489AE814AD2F8042314077FF55C
:1095100083AE00221A601B680493049B7F4B1A6879
:10952000012A46F008067FF47CAE784AD2F804237C
:10953000D0067FF576AE00221A601B680493049B68
:10954000774B1A68012A46F010067FF46FAE6F4A17
:10955000D2F8042391067FF569AE00221A601B68D9
:109560000493049B6F4B1A68012A46F020067FF48F
:1095700062AE664AD2F8042352067FF55CAE002242
:109580001A601B680493049B46F0400653E60E469F
:1095900033E6654B00221A601B6805934FF0A04329
:1095A000059AD3F81035019346F000464CE6BEF11B
:1095B000020F7FF41DAF032963D0002B3FF418AFD7
:1095C000984715E7BEF1020F7FF444AF032969D035
:1095D000002B54D13EE7BEF1020F7FF4A4AE032965
:1095E00000F091800025002B3FF49EAE98479BE64B
:1095F000BEF1020F7FF4CAAE032956D0002B3FF410
:10960000C5AE9847C2E603297FF424AF17F80820B7
:1096100042EA0C0207F808200BE703297FF4B6AEF4
:1096200017F8082042EA0C0207F808209DE60329F3
:109630007FF479AE17F80C50154307F80C5061E62B
:1096400003297FF4D5AE17F8082042EA0C0207F888
:109650000820BCE60329BBD14FF4003ED2F800C776
:109660002CF4403CC2F800C7D2F800C701354CEAE0
:109670000E0CEDB2C2F800C7002B3FF4EEAE9847D7
:10968000E8E64FF4403ED2F800C72CF4403CC2F864
:1096900000C7D2F800C701354CEA0E0CEDB2C2F893
:1096A00000C78AE74FF4403ED8E74FF4403ED2F877
:1096B00000C72CF4403CC2F800C7D2F800C70135FF
:1096C0004CEA0E0CEDB2C2F800C797E703297FF40D
:1096D00074AF4FF4003ED6E703298FD14FF4003E1C
:1096E000E5E703297FF47FAF4FF40035DCF800276E
:1096F00022F44032CCF80027DCF800272A43CCF8CB
:10970000002701256FE74FF44035EFE70060004088
:1097100004610040086100400C610040106100409D
:1097200014610040186100407C610040014B1B68DF
:10973000184700BF44340020104B984201D000204D
:10974000704730B583B002A8002300F8013D0D46F4
:10975000FEF7A2F80A4B1C7934B19DF80700FEF71A
:10976000C1F8112003B030BD01229DF807001D6033
:109770001A71FEF7B7F82046F4E700BF002000405A
:109780004434002030B56C4AD2F8043399058BB0CC
:1097900066D5D2F82431002B62D00023C2F82431E0
:1097A000D2F8243103934FF40171644B0398C2F84B
:1097B000081393F8291009B9012151605E4902226A
:1097C0008DF81820D1F88024C1F880249869D968D0
:1097D00009920022CDE90710C3E90622D3E900145B
:1097E00006A8A047544AD2F81C31BBB1534B186AA3
:1097F0005969884269D350480022C0F81C21D0F82A
:109800001C010190019849B198688DF818200891C1
:109810005A610790D3E9001206A89047464AD2F849
:109820004431DBB10021454BC2F84411D2F8440168
:1098300093F829100090009809B1012111609A69EC
:1098400062B10022586AD9689A610122CDE90710F5
:109850008DF8182006A8D3E9001290470BB030BD50
:10986000354AD2F804335B07BCD5D2F80831002B57
:10987000B8D0324B996900293CD00021C2F80811B8
:10988000D2F8081104910499D868596AD2F81825B9
:1098900042545A6A996901325A625A6A8A42A1D17B
:1098A000DA691968002A2ED0D8685D6A1C699A6145
:1098B000079000220120DC60DA615A628DF81800FE
:1098C00008955B6806A898478CE793F8280000F095
:1098D000FF0400288FD1C2F81C41D2F81C1102915C
:1098E00002999C68186A196A205C01311962C2F8F1
:1098F0001C0593E7C2F80811D2F8080105900598F5
:10990000D2F81825C9E793F8292012B90A4A01208C
:109910005060094A4FF40170C2F80803586ADA68C7
:1099200008900024012007928DF818005A689C6165
:1099300006A8904756E700BF002000404C340020A6
:109940002DE9F041DFF8988107792C2606FB078680
:1099500082B096F82A30002B40F08F800D460446E6
:109960005C4900681646FFF7E7FE002840F081805A
:109970002B68591C0CD001224FF0A04102FA03F3CE
:10998000C1F808352B6803F5E073032241F8232062
:109990006B685A1C06D003F5E0734FF0A04200211B
:1099A00042F823102368AA69C3F82425297D6B7D1A
:1099B00022680B43C2F86C35D5E900122368C3F85E
:1099C0001425C3F80C152B7D012B5AD02C2303FB37
:1099D00007F308EB030256602A6948F80320002EBB
:1099E00034D022682B7F3C4D0021C2F81C11D2F8E4
:1099F0001C2100922268009EC2F84411D2F8441142
:109A0000226801910199C2F804532168090B4AB2F6
:109A10005B01002ADBB256DB02F1604202F56142D3
:109A200082F800332268120B42F3C40323F0604330
:109A300023F0030303F1604303F5614302F01F02C7
:109A4000012101FA02F2C3F880211A602C23246854
:109A500003FB0783002204250121C4F8005583F885
:109A60002A10C3E9062283F829205A6102B0BDE812
:109A7000F081112002B0BDE8F081082002B0BDE8FD
:109A8000F081AB68591C06D003F5E0734FF0A0429B
:109A9000002142F82310EB685A1C0DD001224FF030
:109AA000A04102FA03F3C1F80835EB6803F5E0734F
:109AB000032241F82320EB682268A968C2F8083520
:109AC000C2F8101582E7054A01F00F010A44137627
:109AD000A8E700BF8597020080000200FCEC00E0D0
:109AE0004C340020F0B5314E05792C2303FB05637F
:109AF00085B05C69002C53D11C62996083F82840C2
:109B00005A610268C2F81C41D2F81C110268029125
:109B10000121029F91600268D3F808C0C2F81C417D
:109B2000D2F81C1101910199D3F820E0196A5F68FD
:109B30001CF80EE001311962C2F81CE517B120468D
:109B400005B0F0BD1A6A5C690168944203D819E057
:109B500093F828203ABBD1F81C21002AF8D0C1F88C
:109B60001C71D1F81C210392039AD3F820E01A6AE1
:109B70001CF80EE001321A62C1F81CE51A6AA24212
:109B8000E9D30168D1F81C31002BFBD00123CB6055
:109B900000202C2303FB056500236B6105B0F0BD9D
:109BA000112005B0F0BD0F20F3E700BF4C340020BA
:109BB0000379044A2C2101FB03235869003018BFA4
:109BC000012070474C340020F0B4514D04792C230F
:109BD00003FB045386B05F6827B103684FF4017636
:109BE000C3F808632C2303FB04539E696EB1DE693E
:109BF0000EB3002F00F0848003684FF4017211202F
:109C0000C3F8042306B0F0BC704793F829709A613A
:109C1000D9605E62DE61002F60D02C2202FB04520C
:109C20000168536853B14FF40173C1F80433002045
:109C300006B0F0BC70471961DA61EEE7C1F8443153
:109C4000D1F844310393039B0368D3F82461D3F81C
:109C50000871D3F8441157B9002936D1002EF4D039
:109C60002C2303FB04540023A3610320E0E7002E10
:109C7000F6D161BB966996B1C3F80811D3F8081103
:109C800004910499D668516AD3F818357354536A0D
:109C9000916901335362536A9942D5D808E0C3F8F9
:109CA0000861D3F8081105910599D3F81835536A5E
:109CB0002C2303FB0454002294F82930A2610BB337
:109CC0000368012110461960B2E7002EC8D12C2389
:109CD00003FB04540023A3610F20A9E70368C3F822
:109CE0002471D3F8242103680192019AC3F8087102
:109CF000D3F8082103680292012202991A608CE7C6
:109D0000112095E7026801211846516090E700BFD5
:109D10004C340020F0B5474BD3F8242189B0002AF9
:109D200054D00021C3F82411D3F824210292022236
:109D30008DF81020029AD3F880043F4AC3F88004BB
:109D40000790D3F83C05D3688DF81800C2E90611D6
:109D500005931168536804A89847364BD3F84421FB
:109D6000BAB10020344AC3F84401D3F844419169A0
:109D70000194019C69B1D3F83C458DF81840D36833
:109D8000906101240593116853688DF8104004A870
:109D90009847284BD3F82021B2B10021264AC3F8B6
:109DA0002011D3F8204150690094009C60B1D3F891
:109DB0004C0593688DF818008DF8101051610593CB
:109DC00004A8D2E90013984709B0F0BDD3F81011E8
:109DD0000029C2D0C3F81021D3F8101116480391FE
:109DE00003998169D3F83C458C42B6D1C569C768EF
:109DF000D0E90016E4B295B1D3F800C285612CF029
:109E00002005C261C3F800520369C36001228DF8C6
:109E1000184005978DF8102004A8B0479DE701234E
:109E200085618DF8184005978DF8103004A8B0476B
:109E300093E700BF00200040783400202DE9F04374
:109E400007796B4E4FEAC70808EB070306EB83035D
:109E500085B093F82030002B40F09E800D460446DC
:109E6000644900689146FFF767FC002840F0908045
:109E70002B68591C0CD001224FF0A04102FA03F3C9
:109E8000C1F808352B6803F5E073032241F823205D
:109E90006B685A1C06D003F5E0734FF0A042002116
:109EA00042F823102368AA69C3F82425297D6A7D16
:109EB00023680A43C3F86C25D5E900312268C2F84B
:109EC0000C35C2F814152B7D012B69D008EB070265
:109ED0009200B318C3F804902B69B350B9F1000F86
:109EE00045D021682B7F444D0022C1F81021D1F8C4
:109EF000101100912168DDF800C0C1F82021D1F8CF
:109F0000201101912168DDF804C0C1F82421D1F8A5
:109F1000241102912168DDF808C0C1F84421D1F86C
:109F20004411226803910399C2F804532168090B74
:109F30004AB25B01002ADBB254DB02F1604202F557
:109F4000614282F800332268120B42F3C40323F00B
:109F5000604323F0030303F1604303F5614302F020
:109F60001F02012101FA02F2C3F880211A6047445E
:109F7000226806EB870600230124082186F820408A
:109F8000C2F80015C6E90633736105B0BDE8F08379
:109F9000112005B0BDE8F083082005B0BDE8F083CE
:109FA000AB68591C06D003F5E0734FF0A0420021C6
:109FB00042F82310EB685A1C0DD001224FF0A0414B
:109FC00002FA03F3C1F80835EB6803F5E0730322E6
:109FD00041F82320EB682268A968C2F80835C2F866
:109FE000101573E7054A01F00F010A441376AAE73A
:109FF00078340020159D020010030200FCEC00E004
:10A0000001F06043B3F1005F2CD1F0B50679234F26
:10A010004FEAC60C0CEB060407EB840483B06369BB
:10A0200013BBA16062610568C5F82031D5F820E155
:10A030000568CDF804E0DDF804E0C5F85831D5F83E
:10A0400058E10568CDF800E0DDF800E0C5F84415FA
:10A05000C5F8482502680121916062683AB1184646
:10A0600003B0F0BD10207047112003B0F0BD0368AD
:10A0700000E08AB9D3F82011D3F858210029F8D08C
:10A08000002A14BF0F2000200CEB060307EB83030C
:10A0900000225A6103B0F0BD0F20F5E778340020AC
:10A0A0000379054A03EBC30302EB830358690030CD
:10A0B00018BF0120704700BF7834002001F06043D2
:10A0C000B3F1005F7ED1F0B40579464CEB005E1928
:10A0D00004EB860682B0766826B107684FF4047CEC
:10A0E000C7F808C32B4404EB83039D69002D42D1BC
:10A0F0009A61DD61D9600368C3F81051D3F810612B
:10A1000003680196019EC3F84451D3F84451036893
:10A110000095009DC3F83415C3F838250368012263
:10A120001A6005790368EE00721904EB8202526826
:10A130005AB14FF40472C3F80423002002B0F0BCFB
:10A140007047002942D1002846D1D3F81021D3F816
:10A150004411D3F82401002AF3D0354400284FF0ED
:10A16000000304EB850414BF032018469942A36141
:10A1700018BF0F20E2E7DD693DB12EB303684FF44D
:10A180000472C3F804231120D8E71961DA61036867
:10A19000C3F81051D3F8106103680196019EC3F80B
:10A1A0004451D3F8445103680095009DC3F8341519
:10A1B000C3F838250268D2F8003243F02003C2F811
:10A1C0000032AEE7102070471120B7E7354404EBAA
:10A1D00085040F20A261B1E7354404EB8504032018
:10A1E000A161ABE77834002038B5B14B1C6814F09E
:10A1F000010401D1204638BDAE4C2378054633B169
:10A20000AD4B1B7800202070F3B1FEF74BFE172DED
:10A2100000F24B81DFE815F0AB00CA00CA00EE0087
:10A22000B7000101E000140128001B0028001B00FA
:10A230005E00650065006500650065008E009B009E
:10A240003500450058005800FEF734FEDFE70123D3
:10A2500018462370FEF73EFE00224FF480419748D7
:10A26000BDE83840FDF71CB9012318462370FEF7FE
:10A2700031FE002240F6CD419048BDE83840FDF760
:10A280000FB98D4B1B78002B00F0F4800020FEF7F7
:10A2900009FE0120FEF7FEFD894B14221A700024EE
:10A2A000A8E7854B1B78002B00F0E7800020FEF725
:10A2B000F9FD0020FEF7EEFD0120FEF7EBFD804BDF
:10A2C00015221A70002495E7FEF7FCFD7C4B002454
:10A2D0001D708FE7FEF7F6FD794B0C221A700024F3
:10A2E00088E77848FDF732F90446D5F1110000F00F
:10A2F000AF80002C40F0AC80012814D0C82505FBAD
:10A3000000F54FF400434FF4FA700021C3FB050140
:10A310004FF47A72002302F0ABFB224601466948F3
:10A32000FDF7BEF804460220FEF7B4FD624B0122A1
:10A330001A705FE7604B1B78002B00F098800020BC
:10A34000FEF7B0FD5E4B12221A70002452E75A4B02
:10A350001B78002B00F083800020FEF7A3FD002077
:10A36000FEF798FD564B13221A70002442E7524B19
:10A370001B78002B00F084800020FEF793FD504BEB
:10A3800000241C7036E70020FEF77AFD002869D013
:10A390000020FEF787FD4FF40031494B4748042465
:10A3A0001C700022BDE83840FDF77AB80020FEF7A7
:10A3B00067FD00286CD00020FEF774FD022D4EF2E0
:10A3C000666118BF4FF400313D4B3C481D700022C0
:10A3D000BDE83840FDF764B80020FEF77BFD384B40
:10A3E000364806241C70002240F6CD41BDE83840B6
:10A3F000FDF756B80020FEF743FD002843D00020AB
:10A40000FEF750FD46F266612D4B2C4803241C706C
:10A410000022BDE83840FDF743B80020FEF730FDCC
:10A4200000283FD00020FEF73DFD254B23480524A2
:10A430001C70002241F69A11BDE83840FDF730B893
:10A440000020FEF727FD1E4B07221A700024D1E6DC
:10A450000220FEF727FD184B00221A70CAE6FEF70D
:10A4600029FD7CE7FEF716FD43F2333195E7FEF751
:10A4700021FD67E7FEF71EFD0BE7FEF71BFD18E762
:10A48000FEF718FD7BE7FEF705FD41F69A11BBE7E5
:10A49000FEF700FD43F2333141F69A13022D08BF57
:10A4A000194691E7FEF7F6FCBFE70024A2E600BFDD
:10A4B000EC340020F03400209C340020C034002014
:10A4C000F1340020A0340020032811D8012A0BD039
:10A4D000012919D00ED302290AD10E4B00EB4000FE
:10A4E000034400205A70704701290AD00022EFE788
:10A4F00007207047074B00EB4000034400209A7090
:10A50000704700F10E02D2B200EB40030149002077
:10A51000CA547047E0340020032813D808B5FEF76A
:10A52000E7FC800000F1A0430020D3F8002722F4CC
:10A530004032C3F80027D3F8002742F44032C3F872
:10A54000002708BD0620704710B50388102B07D0E0
:10A55000112B04D1254B18680138186030B110BD9B
:10A56000224C216881B10131216010BD01220221FC
:10A57000FFF7AAFF38B3072825D01D4B1B68002B17
:10A58000EDD0BDE81040184701220846FFF79CFFB8
:10A5900038B1072805D0164B1B6803B198472168CE
:10A5A000E1E7072202210120FFF78EFF08B107280B
:10A5B000F1D1042202210020FFF786FF0028EED00F
:10A5C0000728E8D1EBE7072202210120FFF77CFFF3
:10A5D00008B10728D1D1002108460A22FFF774FFED
:10A5E0000028BCD00728C8D110BD00BFF834002017
:10A5F000F434002008B50020FFF78EFF10B10628C4
:10A6000000D008BD0120FFF787FF0028F9D00628F9
:10A6100008BF002008BD00BFA8DF7047AADF704751
:10A62000ACDF7047AEDF704762DF70472DE9F04165
:10A6300090B006460D4609A81C22002102F0F1F94F
:10A640009DF82430002402AF43F01A0321460DF197
:10A650000408384603228DF824300A94CDE90C44CE
:10A66000CDE90E8402F0DDF99DF80A20A979EB7995
:10A6700096F818C08DF80810012565F3420202F023
:10A68000E70264F3000221468DF80A208DF80930B4
:10A6900004A841F2014314228DF80EC0ADF80C302D
:10A6A00002F0BFF903AB214640460322CDE9057510
:10A6B000ADF81C50049302F0B4F99DF80640B08840
:10A6C00065F3420404AA09A9B31D41F211158DF8DE
:10A6D0000640ADF80450FFF7A1FF10B0BDE8F081CF
:10A6E0002DE9F04190B005460E4609A81C22002134
:10A6F00002F097F99DF82430002402AF43F01A03CA
:10A7000021460DF10408384603228DF824300A94BE
:10A71000CDE90C44CDE90E8402F083F99DF80A20BE
:10A72000717AB37A95F818C08DF80810012666F38F
:10A73000420202F0E70264F3000221468DF80A208B
:10A740008DF8093004A841F2024314228DF80EC09E
:10A75000ADF80C3002F065F904232146404603AC05
:10A760000322CDE904470693ADF81C3002F059F9F5
:10A770009DF80640A88805F10E0304AA09A966F30E
:10A78000420441F211158DF80640ADF80450FFF770
:10A7900045FF10B0BDE8F081F0B5174B05460E46F9
:10A7A0000FCB34682C6087B002AC4FF6FF7784E89B
:10A7B0000F00EF82204605F11801FFF735FF08B1C1
:10A7C00007B0F0BD06A94FF4A05321F8143D2A1D8F
:10A7D0002B7E8DF806300120FFF71EFF0028EFD1F9
:10A7E00031462846FFF722FF0028E9D131462846A6
:10A7F000FFF776FFE4E700BF98D4020070B588B099
:10A8000004468DF807100822002102A802F009F979
:10A8100001250DF1070302AAE188E08A029503935E
:10A82000FFF7FEFED0B9E28A4FF6FF739A4217D0C7
:10A830000146102204A802F0F4F8E688E08ABDF888
:10A840000A20039B8DF8125002AC04A90694ADF8BF
:10A850001060ADF814200793FFF7E4FE08B070BD58
:10A86000082008B070BD00BF30B589B00446019122
:10A8700008220021042502A802F0D3F80DEB0503FD
:10A8800002AAE189E08ACDE90253FFF7C9FED8B9EF
:10A89000E28A4FF6FF739A4218D00146102204A8AC
:10A8A00002F0BFF8E589E08ABDF80A20039BADF805
:10A8B000105002AC069404A901248DF81240ADF8A2
:10A8C00014200793FFF7AEFE09B030BD082009B091
:10A8D00030BD00BF0388102B06D0112B03D14FF6DB
:10A8E000FF73CB827047704700B5034683B00A46BA
:10A8F00002A99B88D382012001F8040D1368104639
:10A90000984703B05DF804FB76DF70477ADF704745
:10A910007CDF70477FDF70478FDF7047B1DF7047A4
:10A9200033DF7047704700BFFCF7B6BA00B5038845
:10A93000103B83B0462B2FD8DFE803F0444D2E5454
:10A940002E2E2E2E2E2E2E2E2E2E2E2E2E242E2E31
:10A950002E2E2E2E2E2E2E2E2E2E2E2E2E2E2E2E17
:10A960002E2E2E2E2E2E2E312E2E2E2E2E2E2E2E04
:10A970002E2E2E2E2E2E2E2E2E2E2E2E2E2E3A2EEB
:10A980002E2E310002A9002321F8043D8088FFF714
:10A99000C3FF08B1FCF780FA03B05DF804FB8088C0
:10A9A0001321FFF7B1FF0028F4D103B05DF804FBD9
:10A9B000114A0023108819461A46FFF7AFFF0028F6
:10A9C000EAD0E7E70C4B81880C48198001F08AFC3B
:10A9D0000028E1D0DEE7084B4FF6FF721A8003B083
:10A9E0005DF804FB044A0023108885211A46FFF70E
:10A9F00091FF0028D0D0CDE7D42A0020EC350020EC
:10AA000008B5037803B108BD054B3B211888FFF753
:10AA10007BFF0028F7D0BDE80840FCF73DBA00BF37
:10AA2000D42A00200B4B4A881B889A4200D07047DA
:10AA30000A8840F677239A42F9D1074A8B88108812
:10AA40000649033B9BB200041A4640F00300FBF7A3
:10AA5000FFBF00BFD42A0020C42C0020C0D40200B5
:10AA6000FCF71ABA08B530B1032803D10220FFF76A
:10AA7000BBFB50B908BDFFF7B7FB50B9FFF7BAFDF4
:10AA800068B9FFF74DFF0028F4D0BDE80840FCF797
:10AA900003BAFCF701FAFFF7ADFD0028F1D0FCF78F
:10AAA000FBF9EEE70378012B02D005D3022B02D18C
:10AAB0004068FCF7F1B970472DE9F041254D264C6F
:10AAC000264E2846FCF780FE23782A78F25401337C
:10AAD000DBB2062B237001D0BDE8F08173790A2B1D
:10AAE00005D06220FCF79EFE00232370F4E7D6F821
:10AAF00001301B4FDFF870801A4D327888F8002043
:10AB00001BBA67203B60FCF78DFEEA8A4FF6FF73A5
:10AB100000219A422170DFD098F800102846FFF7F4
:10AB20006DFE396880462846FFF79EFE0546B8F15F
:10AB3000000F0AD115B12846FCF7AEF92378062B91
:10AB4000CAD173790A2BC7D0CBE74046FCF7A4F9EA
:10AB5000F0E700BFF63A0020F8350020F03A002078
:10AB600000350020BC350020FC34002008B5094920
:10AB7000094801F0A7FA48B9F721074801F0BAFAE5
:10AB800000B908BDBDE80840FCF786B9FCF784F9B8
:10AB9000F2E700BF25AA0200D835002000B57D4DA0
:10ABA0007D4BB1B005AC01930FCD0FC495E8030008
:10ABB0004FF4807384E803000293784C049301A956
:10ABC00005A8774A03940723FCF784FD002840F08A
:10ABD000B6804FF400410020FBF7AAFC002840F0AB
:10ABE000D580FBF72FFCFCF7F5FB002840F0CB806D
:10ABF0000120FEF783F9FDF7D9FE002840F0C08060
:10AC000001F0FCFB002840F0B8800020FEF762F95C
:10AC1000002305A90120059301F054FD002840F010
:10AC2000A98005A801F024FE002840F0A08011238F
:10AC30005C488DF8043001F004FF5A4982B201A843
:10AC4000FFF766FE002840F08F800822002105A84B
:10AC500001F0E7FE544B059305A84FF0C873069327
:10AC6000FFF754FE00287CD1FFF780FF4F4B504880
:10AC7000019301A901F024FB00286FD10C220021CF
:10AC800005A801F0CEFE4B4B059341F211121123A2
:10AC90004948ADF81A2005A98DF81D308DF81E30F1
:10ACA000FFF77AFD002856D1AC22002105A801F05B
:10ACB000B8FE02240021052240488DF814400123EB
:10ACC00040258DF8161044F250648DF81720199025
:10ACD0003B4A3C48ADF8603005A98DF89030CDE98D
:10ACE00027542E9200F04CFD90BB0121354800F016
:10ACF00043FD1C22002105A801F093FE0023324AE7
:10AD00000593ADF822308DF82430304B4FF42035C8
:10AD10004FF47024032105A8CDE906548DF82010C6
:10AD2000CDE90A2301F0AEF878B90321254800F0F7
:10AD30009DFD38B9FBF70EFFFDF74EFEFAE7FCF775
:10AD4000ABF846E7FCF7A8F8F4E7FCF7A5F8ECE762
:10AD5000FCF7A2F8C9E7FCF79FF8A5E7FCF79CF819
:10AD60008CE7FCF799F87FE7FCF796F86DE7FCF7BE
:10AD700093F85CE7FCF790F853E7FCF78DF844E7AD
:10AD8000FCF78AF83CE7FCF787F831E7FCF784F832
:10AD900027E700BFA8D40200FC350020FC360020C5
:10ADA000A5AA0200DCD4020010003C0029A9020080
:10ADB000EC35002025A90200BC350020D02A002057
:10ADC00065AA02000435002001AA020061AA02005F
:10ADD0002DE9F84F4400DFF85CB126180BEBC606EE
:10ADE0008146F76A012F8A46904667D03DD3022FED
:10ADF00030D100F1010909EB4909756A4FEAC90927
:10AE00000027B36A346AAB4203F1FF329CBF1B19BF
:10AE100003F1FF33A4EB05048CBF531B5B1B0BEB4F
:10AE20000902444528BF44469C42506828BF1C463E
:10AE300028445146224601F0E9FD336A25449D42EB
:10AE40002744A8EB0408A24408D07562B8F1000FAB
:10AE5000D7D100E000273846BDE8F88F00231D4613
:10AE60007362B8F1000FCCD1F5E7B36A756AAB42F3
:10AE70009CBF326A9B18013B5B1B9845EBD804448E
:10AE800000F101090BEBC40409EB49090BEBC90BF9
:10AE9000266ADBF80400761BB045284443D33246CB
:10AEA000A8EB060501F0B2FD0AEB0601DBF8040091
:10AEB0002A4601F0ABFD47466562CCE7D6E9082596
:10AEC000B76AAF4298BFBF18461C013F06EB460663
:10AED0007F1B0BEBC606474528BF47467068A2EBB1
:10AEE00005084745284412D3A1444246A7EB08056C
:10AEF0000BEBC90B01F08AFD0AEB080170682A46CA
:10AF000001F084FDCBF824503846BDE8F88FA14409
:10AF10000BEBC90B3A463D4401F078FDCBF82450C9
:10AF20003846BDE8F88F4246454401F06FFD47467C
:10AF3000656290E7F83A002038B5114C114B124881
:10AF4000E36110254FF40073104A11492362E06455
:10AF500000232565E01D0225A3626362E362A36509
:10AF60006365E365A261A264C4E9045501F061FD73
:10AF70002046084901F05DFD2023A37138BD00BFC4
:10AF8000F83A00200C380020FC370020E4D40200FE
:10AF9000F0D40200F4D402006DDF704779DF70470F
:10AFA0007DDF704764DF70472DE9F04F83B0048880
:10AFB0000C9EBDF83490B6F800A0002C39D098460D
:10AFC000002317468B4605461C4603E02A880134B9
:10AFD000A24224DD6A6852F82400019000220DF19B
:10AFE000030101A8FFF7DEFF20BB9DF80320BA4252
:10AFF000ECD13288B91803B389452BDB42440DF1FB
:10B00000030101A80123FFF7CDFF98B931889DF80E
:10B0100003200A4432802A880134A242DADC43B198
:10B020003388013BA3EB0A039BB2FF2B12D808F82D
:10B030000A30002003B0BDE8F08F023101328945AB
:10B0400092B207DB328008F802B03288013292B245
:10B050003280D3E70C2003B0BDE8F08F2DE9F04734
:10B0600000231788138090F82D3086B014460546CB
:10B070000E46002B40F0F880AA78002A40F0FA80B3
:10B08000EA78A2B1D91CB94200F2F0800221F15451
:10B09000238801339BB201212380F15423880B4480
:10B0A0009BB22380F25423880B449BB223806A68AE
:10B0B000AAB1D91CB94200F2D980022192F900202C
:10B0C000F154238801339BB20A212380F154238851
:10B0D00001339BB22380F2542388013323802B89D0
:10B0E000002B40F018812B8A002B40F02C812B8BF9
:10B0F000002B40F040812B6A002B47D0B4F800E0D1
:10B100000EF10602BA4200F2B1801A88052A40F216
:10B11000FE806FF4486802EB080189B24FF27D307F
:10B12000814240F2F4805988052940F2F0806FF4A2
:10B13000486C8C441FFA8CFC844540F2E8804FF642
:10B14000FF70824204D0814202D08A4200F2DF8046
:10B15000052206F80E202288013292B212212280A6
:10B16000B1542288013292B222801988B1543244FB
:10B17000090A51702288023292B222805B88B3544D
:10B1800032441B0A53702388023323806B6A002BDE
:10B190002FD09988B4F800C0881C0CF10202024438
:10B1A000BA4263D8FE2861D8033106F80C10228811
:10B1B000013292B2FF212280B1542288013292B230
:10B1C00022801988B1543244090A51702088023013
:10B1D00080B220809A8862B199680393002900F0B8
:10B1E0009680304401F012FC039B9A882388134414
:10B1F000238095F82C30002B40F08480287800289C
:10B2000035D02B88012B00F08280228802F1020CBD
:10B21000BC452BD8012804D16B78023313449F42DC
:10B2200024D3BB1E9B1A06A99BB221F8083D06EB4E
:10B230000C00FFF7B5FED0B92A78022A00F0FB8097
:10B24000012A00F000810821FE2B0FD82288581C0B
:10B25000B0542288013292B22280B1542288013245
:10B2600013442380002002E0082F23D80C2006B0CE
:10B27000BDE8F0870433BB42F8D804A8FFF78EFE80
:10B280000028F4D12388BDF810200321F15423882D
:10B2900001339BB219212380F154238801339BB2DF
:10B2A000F1182380F254120A4A70238802339BB2A9
:10B2B0002380E5E604A8FFF76FFE0028D7D11388A6
:10B2C0000822CA54238801339BB21B222380CA540C
:10B2D0002088013080B22080062208440DF111013F
:10B2E00001F094FB23889DF8102006339BB212F0E6
:10B2F000FE0218BF01222380F254238801339BB23F
:10B300002380B9E6D5F82880B8F1000F4CD107208A
:10B3100006B0BDE8F08705F108080222CDE9004734
:10B32000404611463346FFF73FFE00289FD1CDE946
:10B3300000474046334610220621FFF735FE00281D
:10B340003FF4D1AE93E705F11008CDE90047404640
:10B35000334602220321FFF727FE002887D1CDE9DB
:10B3600000474046334610220721FFF71DFE002804
:10B370003FF4BDAE7BE705F11808CDE90047404634
:10B38000334602221421FFF70FFE00287FF46FAF2F
:10B39000CDE900474046334610221521FFF704FE51
:10B3A00000283FF4A8AE62E7B8F804200232FE2A73
:10B3B0003FF65CAF23884FF000094FF0160A0132C8
:10B3C000F254238801339BB2238006F803A023881C
:10B3D00001339BB22380B8F80020F2543344120AA0
:10B3E0005A70238802339BB22380B8F80410F018F7
:10B3F0000A4661B1D8F808301946002B87D001F011
:10B4000005FBB8F80420238813449BB2238009F17C
:10B41000010995F82C205FFA89F94A4509EB49089A
:10B420007FF6ECAEAA6A02EB8808B8F80420023274
:10B43000FE2AC4D91AE7BDF810209342FFF403AFE7
:10B440001346092100E76A789342FFF4FCAE1346E5
:10B450000821F9E6F8B130B4437893421CD0B9B171
:10B460000024234601E0994212D9045D01342344AB
:10B470009BB2C5181C466D789542F4D1994207D904
:10B48000025D0233012A9BB202D0184430BC7047DF
:10B49000002030BC7047704700242346EEE700BF11
:10B4A00072DF704773DF704770B5044600F1AA067B
:10B4B0000D4630460722002101F0B3FAE38813B1AC
:10B4C000A378012B6AD0E379002B64D194F8AB30D8
:10B4D000002B74D194F8AC30002B70D194F8AD30BF
:10B4E000002B6CD194F8AE30002B68D194F8AF30BB
:10B4F000002B64D194F8B0301A1C18BF01226B1EC7
:10B50000032B00F23681DFE803F002530A0DA37922
:10B51000002B4DD094F82430002B49D12AB9237A3E
:10B52000002B64D1657A002D4DD1A570002384F8DD
:10B53000B33004F13C0518220021284601F071FACD
:10B54000E26A0123511E994284F83C3012D994F8E2
:10B55000242084F8513092B184F85230A37800222C
:10B5600084F85020042B00F2F380DFE803F06742F8
:10B570006BAA7B0094F8243084F851200BBBA3788D
:10B58000002284F85020042B00F2E280DFE803F070
:10B590005631D1C5CB00A378022B97D1636B002B1A
:10B5A00000F0E480012284F8B120082098478DE75C
:10B5B000E379002BB3D0002AB1D00225B5E70122F0
:10B5C0009DE7A36AC8E70422636BA270002BADD08D
:10B5D0006279002AAAD094F8B220002AA6D10121CB
:10B5E00084F8B42084F8B31007209847A1E7032219
:10B5F000EAE70023012002218022266484F831003A
:10B60000C4F8A430636484F83C10A4F848200021F6
:10B610002A4604F15400FFF743FF00B170BD94F8CF
:10B62000301094F85400FFF73DFF0028F6D1636B0B
:10B6300013B194F831009847002070BD002384F8BE
:10B640003130F4E7022384F831300723D4E90321B1
:10B6500084F83C3000232664A4F84810C4F8A430D1
:10B660006264D4E7D4E9072162640622A4F8481092
:10B6700084F83C206279002A60D094F8B220002A35
:10B680005CD194F8B420002A58D0022384F85030BA
:10B690000122B4F89810D4F89400FFF7DBFE08B14B
:10B6A0000423037004F1940631462A4604F1540041
:10B6B000FFF7F6FE002854D10622A37884F8312043
:10B6C00041E0D4E9052162640622A4F8481084F818
:10B6D0003C206279002A3ED094F8B220DABB94F87C
:10B6E000B420C2B3022384F850300122B4F8981079
:10B6F000D4F89400FFF7AEFE08B10423037004F100
:10B70000940631462A4604F15400FFF7C9FE40BBB7
:10B710000522A37884F8312015E0D4E9051261648C
:10B72000A4F84820D5E7D4E907126164A4F84820BA
:10B73000A0E7022384F83130032387E7042284F84A
:10B74000312004F19406C4F8A460002B3FF46FAFDD
:10B75000D4F8A4105CE7032284F8312004F19406A5
:10B76000F1E7A378002B3FF462AFF1E784F8B13042
:10B77000ACE60025D9E600BF80F83010704700BF66
:10B7800000294BD0002849D0F8B591F87A301BB188
:10B7900091F89830002B3FD1D1F8A030042B3BD04A
:10B7A000D1F89C30042B37D04FF0000C80F802C049
:10B7B00001F1780604460F460FCE251D0FC50FCEAA
:10B7C0000FC596E8070085E8070084F830C0D7F871
:10B7D000A4306363D7F8A830A3634FF6FF7504F174
:10B7E0009403C4F8A4306146A4F8A850072204F1D9
:10B7F000AA0001F016F923780BB984F854502246B8
:10B8000004F155011F25C4F89410384622F8985FBA
:10B81000FFF724FC20B1F8BD0720F8BD0E207047CB
:10B82000224604F17401C4F89C1007F13C0022F890
:10B83000A05FFFF713FC0028EDD1D4E90525012313
:10B84000206484F850000146626484F8513084F822
:10B850003C30A4F8485004F13C0204F15400FFF7D6
:10B860001FFE0028D7D12370F8BD00BFF8B50578BA
:10B8700055B104460020A1700E46FCF7D9FC28B152
:10B88000012363700020F8BD0820F8BD04F1AA0769
:10B8900001460722384601F0C4F8E38813B1A378C3
:10B8A000012B6BD0E37913B1A378022B66D094F807
:10B8B000AB3083B994F8AC306BB994F8AD3053B970
:10B8C00094F8AE303BB994F8AF3023B994F8B05047
:10B8D000003518BF0125731E032B00F23181DFE80C
:10B8E00003F00235080BA37983B394F824306BBBC3
:10B8F0002DB9237A002B61D1667A002E4AD1A67029
:10B90000002384F8B33004F13C05182200212846B6
:10B9100001F087F8E26A0123511E994284F83C3015
:10B920001BD994F8242084F85130DAB184F85230CD
:10B93000A378002284F85020042B00F29E80DFE8D8
:10B9400013F066003F00D9009F006A00E379002BE6
:10B95000CFD0002DCDD00226D1E794F8243084F842
:10B960005120ABB9A378002284F85020042B00F2B8
:10B970008480DFE803F04C25CFB9B300636B002B64
:10B9800000F0DB80012284F8B120082098478EE780
:10B99000A36ACBE70422636BA270002BB0D062795C
:10B9A000002AADD094F8B220002AA9D1012184F850
:10B9B000B42084F8B31007209847A4E70322EAE7ED
:10B9C0000023012002218022276484F83100C4F87A
:10B9D000A430636484F83C10A4F8482000212A466F
:10B9E00004F15400FFF75CFD00287FF44CAF94F89D
:10B9F000301094F85400FFF755FD00287FF443AF52
:10BA0000636B13B194F8310098470020F8BD002310
:10BA100084F83130F4E7D4E9072162640622A4F8FF
:10BA2000481084F83C206279002A7ED094F8B22035
:10BA3000002A7AD194F8B420002A76D0022384F820
:10BA400050300122B4F89810D4F89400FFF702FDAA
:10BA500008B10423037004F1940631462A4604F128
:10BA60005400FFF71DFD002865D10622A37884F855
:10BA70003120C4F8A460002BC2D0D4F8A410AEE7E3
:10BA8000D4E9052162640622A4F8481084F83C2019
:10BA90006279002A43D094F8B220002A3FD194F86A
:10BAA000B420002A3BD0022384F850300122B4F89D
:10BAB0009810D4F89400FFF7CDFC08B1042303706C
:10BAC00004F1940631462A4604F15400FFF7E8FCDD
:10BAD00088BB0522A37884F83120CAE7D4E907128D
